:1000AF00E582900003F0900001E0FAA3E0FB9000DE
:1000BF00B87403F0E4A3F08A828B831210C3AA8270
:1000CF00AB8330B255900003E0FC6027900000E056
:1000DF00FC6010EA24ACF582EB3419F583E493FC51
:1000EF00F58222EA2484F582EB341AF583E493FC3B
:1000FF00F58222900000E0FC6010EA245CF582EBB0
:10010F00341BF583E493FCF58222EA2434F582EB69
:10011F00341CF583E493FCF58222900003E0FC602D
:10012F0027900000E0FC6010EA2418F582EB341AE7
:10013F00F583E493FCF58222EA24F0F582EB341A7E
:10014F00F583E493FCF58222900000E0FC6010EA56
:10015F0024C8F582EB341BF583E493FCF58222EA85
:0E016F0024A0F582EB341CF583E493F5822284
:1019AC006868687979797979363636363667676753
:1019BC00676776767676763535353535727272722E
:1019CC0072636363636364646464646565656565BD
:1019DC00333333333373737373737A7A7A7A7A3229
:1019EC00323232327171717171202020202080804E
:1019FC00808080000000000009090909090000002E
:101A0C0000008585858585070707070748484859DD
:101A1C00595959595E5E5E5E5E4747474747565671
:101A2C00565656252525252552525252524343438C
:101A3C0043434444444444454545454523232323DB
:101A4C002353535353535A5A5A5A5A4040404040C6
:101A5C0051515151512020202020808080808000C5
:101A6C000000000009090909090000000000858533
:101A7C008585850707070707686868626262626286
:101A8C003636363636747474747476767676766644
:101A9C00666666667272727272343434343464649C
:101AAC006464647878787878333333333377777742
:101ABC0077777A7A7A7A7A61616161617171717121
:101ACC007131313131318080808080000000000024
:101ADC000909090909868686868685858585858412
:101AEC008484848448484842424242425E5E5E5E40
:101AFC005E545454545456565656564646464646CC
:101B0C0052525252522424242424444444444458CF
:101B1C0058585858232323232357575757575A5A43
:101B2C005A5A5A414141414151515151512121215E
:101B3C0021218080808080000000000009090909B3
:101B4C0009868686868685858585858484848484B5
:101B5C006868686E6E6E6E6E75757575753838382A
:101B6C0038386D6D6D6D6D6B6B6B6B6B39393939DD
:101B7C00396F6F6F6F6F6C6C6C6C6C2E2E2E2E2EF3
:101B8C0070707070702D2D2D2D2D2F2F2F2F2F2726
:101B9C00272727273D3D3D3D3D80808080805B5B36
:101BAC005B5B5B0D0D0D0D0D000000000081818154
:101BBC0081810D0D0D0D0D0C0C0C0C0C484848487A
:101BCC004E4E4E4E55555555552A2A2A2A2A4D4DBC
:101BDC004D4D4D4B4B4B4B4B28282828284F4F4FE6
:101BEC004F4F4C4C4C4C4C3E3E3E3E3E5050505059
:101BFC00505F5F5F5F5F3F3F3F3F3F2222222222C9
:101C0C002B2B2B2B2B80808080805D5D5D5D5D0D93
:101C1C000D0D0D0D000000000081818181810D0DE5
:101C2C000D0D0D0C0C0C0C0C6868683737373737FA
:101C3C0075757575756A6A6A6A6A6D6D6D6D6D69B3
:101C4C006969696939393939392C2C2C2C2C6C6C13
:101C5C006C6C6C303030303070707070703B3B3B63
:101C6C003B3B2F2F2F2F2FABABABABAB3D3D3D3DBC
:101C7C003D00000000005B5B5B5B5B7F7F7F7F7FD9
:101C8C00000000000000000000000D0D0D0D0D08FF
:101C9C00080808084848482626262626555555552E
:101CAC00554A4A4A4A4A4D4D4D4D4D494949494973
:101CBC0028282828283C3C3C3C3C4C4C4C4C4C297F
:101CCC002929292950505050503A3A3A3A3A3F3F34
:101CDC003F3F3FACACACACAC2B2B2B2B2B00000008
:101CEC0000005D5D5D5D5D7F7F7F7F7F000000009C
:101CFC000000000000000D0D0D0D0D08080808086F
:040000000200363292
:01000B0032C2
:0100130032BA
:01001B0032B2
:0100230032AA
:01002B0032A2
:0300330002038C39
:0300AC0002017DD1
:10017D0012018280FE120452120349D2969000049D
:10018D007401F0900005E4F0900006F01202289042
:10019D000004E0FA6007C296900004E4F0120464D3
:1001AD00E5828583F045F060E6900005E0FA600594
:1001BD0012024C80DA900006E0FA601F12047FAA4A
:1001CD0082BA8410900006E4F0901D0C75F0801238
:1001DD0004A880BB8A82120D3980B412047FAA82D2
:1001ED001201F280AAE582900007F0900007E0FA74
:1001FD00BA0902800ABA2D028017BA851D80030242
:10020D0002289000057401F0901D2A75F0800204FB
:10021D00A89000067401F0020DC322901D5D75F0CB
:10022D00801204A8901D7275F0801204A8901D977D
:10023D0075F0801204A8901DBE75F0800204A89080
:10024D000000E50AF0900001E50CF0A3E50DF08546
:10025D0009821200AFAA82750800BA840E900005BB
:10026D00E4F0901DDF75F0800204A8C0021202AA0E
:10027D00D002901DF975F080C0021204A8D0028A38
:10028D008212046D901E0A75F0800204A8438E0C34
:0D029D00438F01538FDF7597FF9000002203
:101D0C000D0A45786974696E6720747970696E671D
:101D1C0020636F616368206D6F64650D0A000D0AA6
:101D2C00456E746572696E6720446961676E6F7386
:101D3C00746963204D6F646520283C5441422043F4
:101D4C004C4541523E20746F2065786974290D0A08
:101D5C00000D0A50726F6772616D206F7074696F3D
:101D6C006E733A0D0A0020273C5441423E27202D29
:101D7C0020446973706C61792074686973206D6597
:101D8C006E7520616761696E0D0A0020273C544115
:101D9C0042205345543E27202D20456E74657220F9
:101DAC00646961676E6F73746963206D6F64650D30
:101DBC000A0020272D27202D20456E746572207473
:101DCC007970696E6720636F616368206D6F6465FD
:101DDC000D0A0045786974696E6720646961676EE5
:101DEC006F73746963206D6F64650D0A00496E74BE
:101DFC0065727072657465642061733A20000D0A17
:011E0C0000D5
:1002AA00E50960047A4180027A427B00C002C003F9
:1002BA00740DC0E0741EC0E07480C0E012135FE5E4
:1002CA008124FBF581E50A60047A2B80027A2D7B72
:1002DA0000C002C003742DC0E0741EC0E07480C068
:1002EA00E012135FE58124FBF581E50B60047A2BAC
:1002FA0080027A2D7B00C002C0037448C0E0741EDD
:10030A00C0E07480C0E012135FE58124FBF58190A0
:10031A0000B87403F0E4A3F0850C82850D831210F3
:10032A00C3AA82AB83C002C0037463C0E0741EC058
:10033A00E07480C0E012135FE58124FBF581227529
:10034A00E90075F90075D90043D90275D80012037E
:10035A007112037E120385750E00750800750F0071
:10036A00D2AED2AFD2DE2275EAF075FA0075DA00A3
:10037A0043DA482275DB0043DB212275DC0043DCCB
:10038A002122C0E0C082C083C0D075D010D310AF84
:10039A0001C3C0D030D90CE50E6003750F01750E8C
:1003AA0001C2D920DA03020435900008E590F0E58D
:1003BA000E7003750F01900008E0FA74015AF50AED
:1003CA0074045AF50BA297B3E433F509AAFB8A130E
:1003DA007A00ACEB7D00EC4212ED4213ACFC8C15BA
:1003EA007C00AEEC7F00EE4214EF4215C3EC9AEDAE
:1003FA009B501374FFC39AFE74FF9BFFEE2CF50CFF
:10040A00EF3DF50D8009ECC39AF50CED9BF50D75E2
:10041A000801D296C2DE75E90075F900C2D843DA3E
:10042A0001D2DE750E00750F00C2DA30D80D750ED6
:10043A0000750F00C29653DAFEC2D8D0D092AFD060
:08044A00D0D083D082D0E03253
:101E0D000D0A4669727374205761766566726F6E3E
:101E1D00743A204368616E6E656C2025630D0A006F
:101E2D004368616E6E656C204120506F6C61726904
:101E3D0074793A20282563290D0A004368616E6E76
:101E4D00656C204220506F6C61726974793A20285C
:101E5D002563290D0A00504341205469636B73209B
:101E6D004265747765656E204368616E6E656C20A2
:101E7D005761766566726F6E74733A2025640D0A2C
:011E8D000054
:10045200858787759852758920758DFD758BFDD2BC
:100462008E22AA087B008A828B8322E58290000971
:10047200F03099FD900009E0F599C29922E50860F3
:10048200FC900000E50AF0900001E50CF0A3E50DF8
:10049200F08509821200AFAA82750800C002120C10
:1004A200E1D0028A8222AAF0AB83E58290000AF0B0
:1004B200A3EBF0A3EAF090000AE0FAA3E0FBA3E0CA
:1004C200FC7D007E008A828B838CF0121722FF60F3
:1004D200300ABA00010B90000AEAF0A3EBF0A3EC99
:1004E200F08F82C002C003C004C005C00612046DB2
:1004F200D006D005D004D003D0020DBD00C70E80B7
:10050200C490000AEAF0A3EBF0A3ECF00DBD0001E9
:100512000E8D828E83229000107401F0120BADAA10
:100522008290000DEAF0900010E0FABA0200400357
:100532000205ABC00212047FAB82D0028B82C002E2
:10054200C003120BCDE5828583F0D003D00245F0C3
:10055200601590001074012AF0EA240DF582E4344B
:1005620000F583EBF080BFBB0A028003BB0D129043
:100572000010E0FA240DF582E43400F583E4F08003
:1005820028748EC0E0741EC0E07480C0E012135F55
:100592001581158115819000107401F0120B8DAA3E
:1005A2008290000DEAF002052890000FE4F090001E
:1005B2000D75F00002115E9000167401F0120BAD81
:1005C200AA82900011EAF0900016E0FABA04004004
:1005D2000302064CC00212047FAB82D0028B82C09F
:1005E20002C003120BFAE5828583F0D003D00245E4
:1005F200F0601590001674012AF0EA2411F582E4E5
:100602003400F583EBF080BFBB0A028003BB0D12FE
:10061200900016E0FA2411F582E43400F583E4F048
:100622008028748EC0E0741EC0E07480C0E0121393
:100632005F1581158115819000167401F0120B8DE2
:10064200AA82900011EAF00205C9900015E4F09028
:10065200001175F000120686AA82AB83BAFF20BB96
:10066200FF1DC002C00374D6C0E0741EC0E07480D7
:10067200C0E012135F158115811581D003D0028A63
:10068200828B8322AAF0AB83E582900017F0A3EB62
:10069200F0A3EAF090001AE4F0A3F07A00900017B9
:1006A200E0FBA3E0FCA3E0FD8B828C838DF01217AC
:1006B20022FEA3AB82AC83900017EBF0A3ECF0A375
:1006C200EDF0EE60030A80E0900017EBF0A3ECF08F
:1006D200A3EDF0EB24FEFBEC34FFFC900017EBF0F3
:1006E200A3ECF0A3EDF0900017E0FBA3E0FCA3E085
:1006F200FD7E00C374808AF063F08095F0400302AF
:100702000B81C2D575F004EE30E704B2D5F404A42F
:1007120030D50AF42401C5F0F43400C5F0FFA8F086
:100722008FF005F07F0178008006EF2FFFE833F8A5
:10073200D5F0F790001CEFF0A3E8F08B828C838D4C
:10074200F0121722F9B93003020B6CB93102807B27
:10075200B932030207E6B9330302080DB9340302C2
:10076200084EB9350302087CB936030208BDB93711
:10077200030208FEB9380302093FB93903020973BB
:10078200B941030209B4B942030209FDB9430302A4
:100792000A46B94403020A8FB94503020AD8B94688
:1007A20003020B20B961030209B4B962030209FD15
:1007B200B96303020A46B96403020A8FB9650302E8
:1007C2000AD8B96603020B20020B68C00690001A11
:1007D200E0F9A3E0FE90001AEF29F0E83EA3F0D082
:1007E20006020B6CC0068F18E8C51825E0C5183341
:1007F200F51990001AE0FEA3E0F990001AE5182E10
:10080200F0E51939A3F0D006020B6CC0069000C1C6
:100812007403F0E4A3F08F828883C002C003C00493
:10082200C005C006121291AF82A883D006D005D0AF
:1008320004D003D00290001AE0FEA3E0F990001A5F
:10084200EF2EF0E839A3F0D006020B6CC0068F1829
:10085200E8C51825E0C51833C51825E0C51833F5D5
:100862001990001AE0FEA3E0F990001AE5182EF0A4
:10087200E51939A3F0D006020B6CC0069000C174D2
:1008820005F0E4A3F08F828883C002C003C004C0D5
:1008920005C006121291AF82A883D006D005D004FB
:1008A200D003D00290001AE0FEA3E0F990001AEF04
:1008B2002EF0E839A3F0D006020B6CC0069000C1FE
:1008C2007406F0E4A3F08F828883C002C003C004E0
:1008D200C005C006121291AF82A883D006D005D0FF
:1008E20004D003D00290001AE0FEA3E0F990001AAF
:1008F200EF2EF0E839A3F0D006020B6CC006900090
:10090200C17407F0E4A3F08F828883C002C003C0E1
:1009120004C005C006121291AF82A883D006D0058A
:10092200D004D003D00290001AE0FEA3E0F99000B8
:100932001AEF2EF0E839A3F0D006020B6CC0068F36
:1009420018E8C40354F8C518C403C5186518C518B7
:1009520054F8C5186518F51990001AE0FEA3E0F9DD
:1009620090001AE5182EF0E51939A3F0D006020B13
:100972006CC0069000C17409F0E4A3F08F828883F2
:10098200C002C003C004C005C006121291AF82A803
:1009920083D006D005D004D003D00290001AE0F92B
:1009A200A3E0FE90001AEF29F0E83EA3F0D0060281
:1009B2000B6CC00690001CE0FFA3E0F89000C1742D
:1009C2000AF0E4A3F08F828883C002C003C004C08F
:1009D20005C006121291AF82A883D006D005D004BA
:1009E200D003D00290001AE0F9A3E0FE90001AEFC3
:1009F20029F0E83EA3F0D006020B6CC00690001C62
:100A0200E0FFA3E0F89000C1740BF0E4A3F08F8242
:100A12008883C002C003C004C005C006121291AF91
:100A220082A883D006D005D004D003D00290001A49
:100A3200E0F9A3E0FE90001AEF29F0E83EA3F0D01F
:100A420006020B6CC00690001CE0FFA3E0F89000C9
:100A5200C1740CF0E4A3F08F828883C002C003C08B
:100A620004C005C006121291AF82A883D006D00539
:100A7200D004D003D00290001AE0F9A3E0FE900067
:100A82001AEF29F0E83EA3F0D006020B6CC00690E4
:100A9200001CE0FFA3E0F89000C1740DF0E4A3F0A5
:100AA2008F828883C002C003C004C005C006121230
:100AB20091AF82A883D006D005D004D003D0029093
:100AC200001AE0F9A3E0FE90001AEF29F0E83EA335
:100AD200F0D006020B6CC00690001CE0FFA3E0F809
:100AE2009000C1740EF0E4A3F08F828883C002C02C
:100AF20003C004C005C006121291AF82A883D006BB
:100B0200D005D004D003D00290001AE0F9A3E0FE91
:100B120090001AEF29F0E83EA3F0D006804CC00600
:100B220090001CE0FFA3E0F89000C1740FF0E4A372
:100B3200F08F828883C002C003C004C005C00612C1
:100B42001291AF82A883D006D005D004D003D00280
:100B520090001AE0F9A3E0FE90001AEF29F0E83EB7
:100B6200A3F0D006800490FFFF221BBBFF011C9064
:100B72000017EBF0A3ECF0A3EDF01A0E0206F590CD
:100B8200001AE0FAA3E08A82F5832212047FAA8285
:100B9200C002120BCDE5828583F0D00245F07008C9
:100BA20075820D12046D80E38A822212047FAA826A
:100BB200C002120BFAE5828583F0D00245F070087C
:100BC20075820D12046D80E38A8222E58290001EF6
:100BD200F090001EE0FABA3000B3E433FB600AC3BF
:100BE20074399AB3E433FA70047A0080027A01EA23
:100BF2003395E08A82F58322E58290001FF090000F
:100C02001FE0FABA3000B3E433FB600AC374399AC6
:100C1200B3E433FA70047A0080027A01EA70249015
:100C2200001FE0FABA4100B3E433FB600AC3744622
:100C32009AB3E433FA70047A0080027A01EA70030C
:100C4200FA80027A01EA702490001FE0FABA610089
:100C5200B3E433FB600AC374669AB3E433FA7004F4
:100C62007A0080027A01EA7003FA80027A01EA339A
:100C720095E08A82F583229000A1E4F0A3F07A0045
:100C82007B00C3EA9480EB648094805046C002C02B
:100C92000312047FAC82D003D002BC0D028003BCDD
:100CA2000A169000A1E0FDA3E0FEED2420F582EEFD
:100CB2003400F583E4F0801BEA2420F582EB340053
:100CC200F583ECF00ABA00010B9000A1EAF0A3EB65
:100CD200F080AF9000A0E4F090002075F00022E5D3
:100CE200829000A3F09000A3E0FABA80028039BAA1
:100CF20081028034BA8402802FBA8502802ABA86A1
:100D0200028025BAAB028005BAAC18800B901F0393
:100D120075F0801204A88010901F0775F0801204ED
:100D2200A880058A8212046D9000A3E0FABA0D062B
:070D320075820A02046D2224
:101E8E000D0A496E76616C696420636861726163E4
:101E9E0074657220656E746572656420647572690E
:101EAE006E67206E756D62657220696E7075742E28
:101EBE00205265656E7465722066756C6C206E7549
:101ECE006D6265722E0D0A000D0A536F6D65746892
:101EDE00696E672077656E742077726F6E672077F4
:101EEE006974682068657820636F6E7665727369B1
:0D1EFE006F6E0D0A00312F3200312F3400BD
:10008F009000A9742AF0A3741FF0A37480F090005D
:07009F00ACE4F09000ADF0AD
:100D3900E5829000A8F09000A5E0FAA3E0FBA3E00B
:100D4900FC8A828B838CF0121722FD9000A8E0FEAA
:100D5900B5051C9000A4E0FD9000A474012DF0904D
:100D690000A574012AF0E43BA3F0A3ECF08031BEA6
:100D79000D05120DC38029BE08028003BE7F161A15
:100D8900BAFF011B8A828B838CF0121722FAF58233
:100D990012046D800BBE8002800675820812046DF4
:100DA9009000A5E0FAA3E0FBA3E0FC8A828B838C88
:100DB900F01217227003020DC322120E29AA82AB68
:100DC90083ACF075820CC002C003C00412046DD05C
:100DD90004D003D002901F0B75F080C002C003C07D
:100DE900041204A8D004D003D0028A828B838CF029
:100DF900C002C003C0041204A8D004D003D00290DA
:100E09001F2575F080C002C003C0041204A8D004D5
:100E1900D003D0029000A5EAF0A3EBF0A3ECF022F6
:100E2900AAE98A037A00ACE97D00EC4202ED4203AB
:100E39009000ADE0FC8C057E00ED2AFAEE3BFB90BC
:100E490000C37414F0E4A3F08A828B83C0041212E5
:100E5900B1E5828583F0D0049000B1F0A3E5F0F00C
:100E69009000AD74012CF09000ADE0FABA14004086
:100E7900059000ADE4F09000B1E0FAA3E0FB8A82AE
:100E89008B83120F08AA82AB83ACF09000AEEAF014
:100E9900A3EBF0A3ECF09000A9E0FDA3E0FEA3E032
:100EA900FFEAB5053DEBB50639ECB507359000AC61
:100EB900E0FA9000AC74012AF07B008A828B8312DD
:100EC9000F08AA82AB83ACF09000AEEAF0A3EBF076
:100ED900A3ECF09000ACE0FABA140040059000AC25
:100EE900E4F09000AEE0FAA3E0FBA3E0FC9000A9D7
:100EF900EAF0A3EBF0A3ECF08A828B838CF022AAB0
:100F090083E5829000B3F0A3EAF09000B3E0FAA37E
:100F1900E0FBC374139AE49B50030210A8EA240966
:100F290083C0E0EA241783C0E0225B6C7D8E9FB00A
:100F3900C1D2E3F4051627384858687888980F0F06
:100F49000F0F0F0F0F0F0F0F1010101010101010A0
:100F590010109000B5742AF0A3741FF0A37480F0E8
:100F69000210B19000B57479F0A3741FF0A37480D6
:100F7900F00210B19000B57464F0A37420F0A3746A
:100F890080F00210B19000B57481F0A37420F0A331
:100F99007480F00210B19000B574C8F0A37420F009
:100FA900A37480F00210B19000B57417F0A37421F6
:100FB900F0A37480F00210B19000B57460F0A374CE
:100FC90021F0A37480F00210B19000B574AEF0A3C3
:100FD9007421F0A37480F00210B19000B574F8F098
:100FE900A37421F0A37480F00210B19000B5744489
:100FF900F0A37422F0A37480F00210B19000B574CC
:1010090094F0A37422F0A37480F00210B19000B59B
:1010190074E2F0A37422F0A37480F00210B190007E
:10102900B57462F0A37423F0A37480F00210B19038
:1010390000B5749BF0A37423F0A37480F0806990C9
:1010490000B574ECF0A37423F0A37480F080599078
:1010590000B57421F0A37424F0A37480F080499042
:1010690000B5745EF0A37424F0A37480F080399005
:1010790000B57490F0A37424F0A37480F0802990D3
:1010890000B574E4F0A37424F0A37480F08019907F
:1010990000B57431F0A37425F0A37480F080099031
:1010A90000B5E4F0A3F0A3F09000B5E0FAA3E0FBEB
:0A10B900A3E0FC8A828B838CF022F6
:101F0B0054595045204C494B452054484520444991
:101F1B00434B454E530D0A0D0A000D0A0D0A005096
:101F2B006C656173652074616B6520796F757220C8
:101F3B00646F672C2043616C692C206F757420666D
:101F4B006F7220612077616C6B2E2E2E20686520BE
:101F5B007265616C6C79206E6565647320736F6D4F
:101F6B00652065786572636973652E2E2E00596F37
:101F7B007520666F6F6C2120596F752066656C6CD0
:101F8B002076696374696D20746F206F6E65206FA6
:101F9B00662074686520636C617373696320626C7F
:101FAB00756E64657273202D20746865206D6F7378
:101FBB00742066616D6F7573206F66207768696337
:101FCB006820697320226E657665722067657420C0
:101FDB00696E766F6C76656420696E2061206C612A
:101FEB006E642077617220696E20417369612220D3
:101FFB002D20627574206F6E6C7920736C69676825
:10200B00746C79206C6573732077656C6C2D6B6EBB
:10201B006F776E20697320746869733A20224E655E
:10202B0076657220676F20696E20616761696E73D8
:10203B0074206120536963696C69616E20776865F0
:10204B006E206465617468206973206F6E207468FC
:10205B0065206C696E652221004F70656E20746877
:10206B006520706F642062617920646F6F72732CCE
:10207B002048414C2E00492077696C6C206E6F74A0
:10208B002074727920746F2070617373205079748F
:10209B00686F6E206F666620617320616E20656DC0
:1020AB006265646465642070726F6772616D6D69DF
:1020BB006E67206C616E67756167652E005265787F
:1020CB00205175696E667265792C20612072656E80
:1020DB006F776E656420736369656E746973742CB6
:1020EB00206372656174656420706C616E73206629
:1020FB006F7220616E20696E7669736962696C69B3
:10210B007479206D616368696E652E00446F207968
:10211B006F75206B6E6F772077687920616C6C2000
:10212B0074686F7365206368656D6963616C732098
:10213B0061726520736F2068617A6172646F757369
:10214B0020746F2074686520656E7669726F6E6D92
:10215B00656E743F0048656C702C2049276D2074A8
:10216B00686520736F756C206F6620616E206163EC
:10217B00636F756E74616E742074726170706564D8
:10218B0020696E20612076696E74616765207479B1
:10219B007065777269746572206B6579626F6172B5
:1021AB00642100596F75206E6576657220646964D1
:1021BB002074656C6C206D6520686F77206D616E87
:1021CB007920636F707065722070656E6E696573D0
:1021DB00207765726520696E2074686174206A616E
:1021EB00723B20686F7720636F6D653F004D6178A0
:1021FB00204A6F796B6E657220736E65616B696CCB
:10220B00792064726F766520686973206361722030
:10221B0061726F756E6420657665727920636F727B
:10222B006E6572206C6F6F6B696E6720666F7220C4
:10223B0068697320646F672E00576520636C696D46
:10224B0062656420746F2074686520746F70206FF2
:10225B006620746865206D6F756E7461696E206998
:10226B006E206A75737420756E6465722074776F57
:10227B0020686F7572733B2069736E74207468618C
:10228B00742067726561743F0057656C6C207468CD
:10229B00657265277320796F75722070726F626C2F
:1022AB00656D2E2E2E20596F7520646572656665DF
:1022BB0072656E6365642061206E756C6C20706F47
:1022CB00696E7465722E204F50454E20594F5552F2
:1022DB0020455945532E00416E6420736F2074685E
:1022EB00652070726F626C656D2072656D61696ED1
:1022FB0065643B206C6F7473206F66207468652077
:10230B0070656F706C652077657265206D65616EA9
:10231B002C20616E64206D6F7374206F662074685F
:10232B00656D2077657265206D6973657261626C8E
:10233B00652C206576656E20746865206F6E6573FD
:10234B002077697468206469676974616C207761B0
:10235B0074636865732E004E6F74206F6E20746803
:10236B0065207275672C206D616E2E2E2E204974A0
:10237B00207265616C6C7920746965732074686573
:10238B0020726F6F6D20746F6765746865722E00B5
:10239B00596F75207365652077686174206861706B
:1023AB0070656E732C204C617272793F3F205468BC
:1023BB006973206973207768617420686170706538
:1023CB006E73207768656E20796F75202425262320
:1023DB0020736F6D656F6E652C204C617272792165
:1023EB0000526F64656E7473206F6620756E757323
:1023FB0075616C2073697A653F204920646F6E2785
:10240B00742062656C6965766520746865792065F2
:10241B00786973742E00224272657669747920692B
:10242B00732074686520736F756C206F66207769F5
:10243B0074222C20506F6C6F6E69757320626C75F3
:10244B007262656420756E69726F6E6963616C6C24
:10245B00792E0057656C6C20646F6E652069732054
:10246B00626574746572207468616E2077656C6C3C
:10247B0020736169642E202D42656E204672616E59
:10248B006B6C696E0054686520736F6464656E20B5
:10249B0073747564656E7473206275726E656420F7
:1024AB00776974682074686520736C6F7720616E30
:1024BB006420696D706C616361626C652066697222
:1024CB006573206F662068756D616E20646573702F
:1024DB0065726174696F6E2E00576861742061209C
:1024EB0062656175746966756C20646179206974C5
:1024FB00206973206F6E2074686520626561636864
:10250B002C206865726520696E206265617574693F
:10251B0066756C20616E642073756E6E79204861F0
:10252B00776169692E0054686520636174746C650A
:10253B002071756965746C79206772617A696E6751
:10254B002061742074686520677261737320646FF7
:10255B00776E206279207468652072697665723BAC
:10256B0020576865726520746865207377656C6C9D
:10257B00696E67206D6F756E7461696E207761741B
:10258B006572206D6F766573206F6E776172642054
:10259B00746F20746865207365613B2054686520F7
:1025AB006275696C646572206F6620746865206360
:1025BB006173746C65732072656E657773207468D4
:1025CB0065206167652D6F6C6420707572706F7319
:1025DB00653B20416E6420636F6E74656D706C613A
:1025EB0074657320746865206D696C6B696E672008
:1025FB006769726C2077686F7365206F66666572AA
:10260B0020697320686973206E6565643B2054688C
:10261B006520796F756E67206D656E206F6620740F
:10262B00686520686F757365686F6C642068617688
:10263B006520616C6C20676F6E6520696E746F200E
:10264B00736572766963653B20416E6420617265C8
:10265B00206E6F7420746F206265206578706563DF
:10266B0074656420666F72206120796561723B200E
:10267B0054686520696E6E6F63656E7420796F7533
:10268B006E67206D6173746572202D2074686F7591
:10269B0067687473206D6F76696E672065766572F7
:1026AB0020666173746572202D3B20486173206630
:1026BB006F726D65642074686520706C616E207438
:1026CB006F206368616E676520746865206D616E4D
:1026DB00206865207365656D733B20416E642074C3
:1026EB00686520706F65742073686561746873200A
:1026FB006869732070656E207768696C65207468F3
:10270B006520736F6C64696572206C6966747320E5
:10271B006869732073776F72643B20416E64207419
:10272B006865206F6C64657374206F6620746865D0
:10273B002066616D696C79206973206D6F76696EA7
:10274B0067207769746820617574686F7269747932
:10275B003B20436F6D696E672066726F6D206163FE
:10276B00726F737320746865207365612C206865C4
:10277B00206368616C6C656E676573207468652097
:10278B00736F6E2077686F20707574732068696D36
:0C279B0020746F207468652072756E0059
:1010C300AA83E5829000BAF0A3EAF09000BCE4F0B2
:1010D300A3F09000B8E0FAA3E0FB7C109000BAE024
:1010E300FDA3E0FE339200EECD25E0CD33FE90006C
:1010F300BAEDF0A3EEF09000BCE0FDA3E0FECD2539
:10110300E0CD33FE9000BCEDF0A3EEF03000129082
:1011130000BCE0FDA3E0FE9000BC74014DF0A3EE23
:10112300F09000BCE0FDA3E0FEC3ED9AEE9B401DF2
:101133009000BCEDC39AF0EE9BA3F09000BAE0FDE3
:10114300A3E0FE9000BA74014DF0A3EEF0DC8D90A5
:0B11530000BAE0FAA3E08A82F58322D4
:06006500E478FFF6D8FD6F
:10115E00AAF0AB83E5829000BEF0A3EBF0A3EAF019
:10116E007A007B009000BEE0FCA3E0FDA3E0FE8CC5
:10117E00828D838EF0121722FF6039C374B98FF0FF
:10118E0063F08095F04007EF648094B050268C8217
:10119E008D838EF0121722FFBF2D028017BF2B02F8
:1011AE0080120CBC00010D9000BEECF0A3EDF0A37C
:1011BE00EEF080BB9000BEECF0A3EDF0A3EEF08C51
:1011CE00828D838EF0121722FFE4BF2D0104F88862
:1011DE00017003BF2B0E9000BE74012CF0E43DA3F2
:1011EE00F0A3EEF09000BEE0FCA3E0FDA3E0FE8CC9
:1011FE00828D838EF0121722FF6068C3EF64809495
:10120E00B0406074B98FF063F08095F04055C00126
:10121E009000C1740AF0E4A3F08A828B83C004C0EC
:10122E0005C006C007C00112129185821A85831B64
:10123E00D001D007D006D005D004EF3395E0F8EFFB
:10124E0024D0FFE834FFF8EF251AFAE8351BFB0C23
:10125E00BC00010D9000BEECF0A3EDF0A3EEF0D0BB
:10126E0001808C9000BEECF0A3EDF0A3EEF0E960EF
:10127E0009C3E49AFCE49BFD80048A048B058C82EE
:03128E008D83222B
:100043007900E94400601B7A009027A7780E75A019
:1000530001E493F2A308B8000205A0D9F4DAF2751B
:02006300A0FFFC
:10129100AA83AB828BF09000C1E0A4F8A9F08AF098
:1012A100E0A429F98BF0A3E0A429F5838882222206
:1012B100AA83E5829000C5F0A3EAF09000C7E4F0AC
:1012C1009000C5E0FAA3E0FB7C009000C3E0FDA321
:1012D100E0FE235401FF7037EECD25E0CD33FE90C3
:1012E10000C3EDF0A3EEF09000C3E0FDA3E0FEC368
:1012F100EA9DEB9E5011EEC313CD13CDFE9000C3BA
:10130100EDF0A3EEF080080C9000C7ECF080BB90EC
:1013110000C7E0FA9000C5E0FBA3E0FC9000C3E049
:10132100FDA3E0FEC3EB9DEC9E400B9000C5EBC31B
:101331009DF0EC9EA3F09000C3E0FBA3E0FCC3137F
:10134100CB13CBFC9000C3EBF0A3ECF08A031AEBB8
:0E13510070C29000C5E0FAA3E08A82F5832204
:10006B007800E84400600A790075A000E4F309D831
:10007B00FC780EE84401600C7902900000E4F0A3D8
:04008B00D8FCD9FACA
:0600A600C201C202C20308
:10135F00C036858136E53624FBFAE53624FBF88660
:10136F00030886040886058B828C838DF012172262
:10137F00FE7003021548BE2502800302152FC2031B
:10138F00C202C201E53624FBF874012BF6E43C08D7
:10139F00F608A605E53624FBF886030886040886BA
:1013AF00058B828C838DF0121722FFBF6802801786
:1013BF00BF6C26D201E53624FBF874012BF6E43C12
:1013CF0008F608A6058012D203E53624FBF874014F
:1013DF002BF6E43C08F608A605E53624FBF8860351
:1013EF000886040886058B828C838DF0121722FBEA
:1013FF00BB63028022BB64028013BB6F02801DBBE4
:10140F0073028005BB78188009D202801275210AF9
:10141F00800D75211080087521008003752108301B
:10142F000247EA24FDF888028622088623088624CC
:10143F001818AB22AC23AD248B828C838DF012173E
:10144F00227003021538AB22AC23AD248B828C8320
:10145F008DF0121722FB0522E4B5220205238B82A1
:10146F00C00212046DD00280C9300116EA24FCF8C4
:10147F0088028625088626088627088628181818C1
:10148F008030300315EA14F888028603EBF5253314
:10149F0095E0F526F527F5288018EA24FEF888024E
:1014AF008603088604188B25ECF5263395E0F5277F
:1014BF00F528E521605DAB25AC26AD27AF28900060
:1014CF00F07429F0A3E4F0A37440F09000F3E52149
:1014DF00F08B828C838DF0EFC002121685D00275CF
:1014EF002229752300752440AB22AC23AD248B82B7
:1014FF008C838DF0121722FB0522E4B522020523FF
:10150F008B35BB00028022853582C00212046DD05C
:10151F000280D5AB258B82C00212046DD0028009E8
:10152F008E82C00212046DD002E53624FBF87401DE
:10153F0026F6E40836F6021369D03622AA82AB8368
:10154F00ACF0FD9000CCEAF0A3EBF0A3ECF0A3ED30
:10155F00F09000CBE0FA7B201BEB24D0FCE43400AE
:10156F00FD9000CCE0FEA3E0FFA3E0F8A3E0F98A32
:10157F001C751D00751E00751F009000F8E51CF00E
:10158F00A3E51DF0A3E51EF0A3E51FF08E828F8368
:10159F0088F0E9C002C003C004C00512173EAE8236
:1015AF00AF83A8F0F9D005D004D003D00274302E49
:1015BF00FE8C828D83F08C828D83E0FEC374B98E96
:1015CF00F063F08095F0500F8C828D83E0FE7407EE
:1015DF002EFE8C828D83F09000CCE0FCA3E0FDA367
:1015EF00E0FEA3E0FF900101E51CF0A3E51DF0A3D1
:1015FF00E51EF0A3E51FF08C828D838EF0EFC00205
:10160F00C003121887AC82AD83AEF0FFD003D002B7
:10161F009000CCECF0A3EDF0A3EEF0A3EFF0900070
:10162F00CCE0FCA3E0FDA3E0FEA3E0FFBC000BBDFC
:10163F000008BE0005BF000280030215678B0290F1
:10164F0000C8E0FBA3E0FCA3E0FD8A060AEE24D06D
:10165F00F582E43400F583E0FE8B828C838DF012EB
:10166F001993A3AB82AC83BA200040DE8B828C83AC
:10167F008DF0E4021993AA82AB83ACF0FD9000F4D5
:10168F00EAF0A3EBF0A3ECF0A3EDF09000F4E0FA96
:10169F00A3E0FBA3E0FCA3E0FD30E73F9000F3E005
:1016AF00FEBE0A379000F0E0FEA3E0FFA3E0F88E45
:1016BF00828F8388F0742D1219939000F074012E8D
:1016CF00F0E43FA3F0A3E8F09000F4C3E49AF0E451
:1016DF009BA3F0E49CA3F0E49DA3F09000F4E0FA48
:1016EF00A3E0FBA3E0FCA3E0FD9000F0E0FEA3E08D
:1016FF00FFA3E0F89000F3E0F99000C8EEF0A3EF3D
:10170F00F0A3E8F09000CBE9F08A828B838CF0EDA8
:03171F0002154B65
:0D00360075813A12029AE582600302017D95
:1017220020F71430F6148883A88220F507E6A883F0
:1017320075830022E280F7E49322E022AA82AB833F
:10174200ACF0FD9000FCEAF0A3EBF0A3ECF0A3ED0B
:10175200F0900100E4F09000FCE0FAA3E0FBA3E0CB
:10176200FCA3E0FD7E009000F8E0F537A3E0F53839
:10177200A3E0F539A3E0F53AE53A235401FF707886
:10178200C006E53725E0FFE53833F8E53933F9E5FA
:101792003A33FE9000F8EFF0A3E8F0A3E9F0A3EEED
:1017A200F09000F8E0F537A3E0F538A3E0F539A3AF
:1017B200E0F53AC3EA9537EB9538EC9539ED953A71
:1017C200E433D0066029E53AC313F53AE53913F557
:1017D20039E53813F538E53713F5379000F8E53772
:1017E200F0A3E538F0A3E539F0A3E53AF080090E5D
:1017F200900100EEF0021768900100E0FA9000FC00
:10180200E0FBA3E0FCA3E0FDA3E0FE9000F8E0F51E
:1018120037A3E0F538A3E0F539A3E0F53AC3EB9539
:1018220037EC9538ED9539EE953A40179000FCEB80
:10183200C39537F0EC9538A3F0ED9539A3F0EE950A
:101842003AA3F09000F8E0FBA3E0FCA3E0FDA3E0E4
:10185200FEC313FEED13FDEC13FCEB13FB9000F83B
:10186200F0A3ECF0A3EDF0A3EEF08A031AEB708D77
:101872009000FCE0FAA3E0FBA3E0FCA3E0FD8A8277
:101882008B838CF022AA82AB83ACF0FD900105EA37
:10189200F0A3EBF0A3ECF0A3EDF0900109E4F0A3C8
:1018A200F0A3F0A3F0900101E0FAA3E0FBA3E0FCB7
:1018B200A3E0FD753720900105E0FFA3E0F8A3E067
:1018C200F9A3E0FE339204EF2FFFE833F8E933F98E
:1018D200EE33FE900105EFF0A3E8F0A3E9F0A3EEEA
:1018E200F0900109E0FEA3E0FFA3E0F8A3E0F9EE27
:1018F2002EFEEF33FFE833F8E933F9900109EEF0F9
:10190200A3EFF0A3E8F0A3E9F030041E900109E090
:10191200FFA3E0F8A3E0F9A3E0FE90010974014FF0
:10192200F0A3E8F0A3E9F0A3EEF0900109E0FEA332
:10193200E0FFA3E0F8A3E0F9C3EE9AEF9BE89CE98D
:101942009D4031900109EEC39AF0EF9BA3F0E89C11
:10195200A3F0E99DA3F0900105E0FEA3E0FFA3E060
:10196200F8A3E0F990010574014EF0A3EFF0A3E8AB
:10197200F0A3E9F0D5370280030218B8900105E020
:10198200FAA3E0FBA3E0FCA3E0FD8A828B838CF048
:101992002220F71030F6118883A88220F507F6A8D6
:0A19A2008375830022F280F7F02223
:00000001FF
